{
  "contractName": "TodoList",
  "abi": [
    {
      "anonymous": false,
      "inputs": [
        {
          "indexed": false,
          "internalType": "uint256",
          "name": "id",
          "type": "uint256"
        },
        {
          "indexed": false,
          "internalType": "uint256",
          "name": "postDate",
          "type": "uint256"
        },
        {
          "indexed": false,
          "internalType": "uint256",
          "name": "completedDate",
          "type": "uint256"
        },
        {
          "indexed": false,
          "internalType": "string",
          "name": "details",
          "type": "string"
        },
        {
          "indexed": false,
          "internalType": "string",
          "name": "creator",
          "type": "string"
        },
        {
          "indexed": false,
          "internalType": "string",
          "name": "completed",
          "type": "string"
        }
      ],
      "name": "QuestInfo",
      "type": "event"
    },
    {
      "inputs": [
        {
          "internalType": "string",
          "name": "_details",
          "type": "string"
        },
        {
          "internalType": "string",
          "name": "_creator",
          "type": "string"
        }
      ],
      "name": "createQuest",
      "outputs": [],
      "stateMutability": "nonpayable",
      "type": "function"
    },
    {
      "inputs": [
        {
          "internalType": "uint256",
          "name": "_id",
          "type": "uint256"
        }
      ],
      "name": "getQuest",
      "outputs": [
        {
          "components": [
            {
              "internalType": "uint256",
              "name": "id",
              "type": "uint256"
            },
            {
              "internalType": "uint256",
              "name": "postDate",
              "type": "uint256"
            },
            {
              "internalType": "uint256",
              "name": "completedDate",
              "type": "uint256"
            },
            {
              "internalType": "string",
              "name": "details",
              "type": "string"
            },
            {
              "internalType": "string",
              "name": "creator",
              "type": "string"
            },
            {
              "internalType": "string",
              "name": "completed",
              "type": "string"
            }
          ],
          "internalType": "struct TodoList.Quest",
          "name": "",
          "type": "tuple"
        }
      ],
      "stateMutability": "view",
      "type": "function",
      "constant": true
    },
    {
      "inputs": [],
      "name": "getQuestIds",
      "outputs": [
        {
          "internalType": "uint256[]",
          "name": "",
          "type": "uint256[]"
        }
      ],
      "stateMutability": "view",
      "type": "function",
      "constant": true
    },
    {
      "inputs": [
        {
          "internalType": "uint256",
          "name": "_id",
          "type": "uint256"
        }
      ],
      "name": "complete",
      "outputs": [],
      "stateMutability": "nonpayable",
      "type": "function"
    }
  ],
  "bytecode": "0x6080604052600060015534801561001557600080fd5b50610f82806100256000396000f3fe608060405234801561001057600080fd5b506004361061004c5760003560e01c806349f86f34146100515780637cfa0d77146100815780639526665d1461009f578063971d852f146100bb575b600080fd5b61006b60048036038101906100669190610792565b6100d7565b60405161007891906108fe565b60405180910390f35b610089610332565b60405161009691906109cf565b60405180910390f35b6100b960048036038101906100b49190610b26565b61038a565b005b6100d560048036038101906100d09190610792565b610504565b005b6100df61066f565b816001600080838152602001908152602001600020600001541015610139576040517f08c379a000000000000000000000000000000000000000000000000000000000815260040161013090610bfb565b60405180910390fd5b6000808481526020019081526020016000206040518060c001604052908160008201548152602001600182015481526020016002820154815260200160038201805461018490610c4a565b80601f01602080910402602001604051908101604052809291908181526020018280546101b090610c4a565b80156101fd5780601f106101d2576101008083540402835291602001916101fd565b820191906000526020600020905b8154815290600101906020018083116101e057829003601f168201915b5050505050815260200160048201805461021690610c4a565b80601f016020809104026020016040519081016040528092919081815260200182805461024290610c4a565b801561028f5780601f106102645761010080835404028352916020019161028f565b820191906000526020600020905b81548152906001019060200180831161027257829003601f168201915b505050505081526020016005820180546102a890610c4a565b80601f01602080910402602001604051908101604052809291908181526020018280546102d490610c4a565b80156103215780601f106102f657610100808354040283529160200191610321565b820191906000526020600020905b81548152906001019060200180831161030457829003601f168201915b505050505081525050915050919050565b6060600280548060200260200160405190810160405280929190818152602001828054801561038057602002820191906000526020600020905b81548152602001906001019080831161036c575b5050505050905090565b6001600081548092919061039d90610cab565b91905055506040518060c001604052806001548152602001428152602001600081526020018381526020018281526020016040518060400160405280600281526020017f4e4f000000000000000000000000000000000000000000000000000000000000815250815250600080600154815260200190815260200160002060008201518160000155602082015181600101556040820151816002015560608201518160030190805190602001906104559291906106a5565b5060808201518160040190805190602001906104729291906106a5565b5060a082015181600501908051906020019061048f9291906106a5565b50905050600260015490806001815401808255809150506001900390600052602060002001600090919091909150557f6e74df9698d910ff9fd86d4134c7b61784e0d3f03a2508a0a540d826c5a50f1960015442600085856040516104f8959493929190610dcd565b60405180910390a15050565b80600160008083815260200190815260200160002060000154101561055e576040517f08c379a000000000000000000000000000000000000000000000000000000000815260040161055590610bfb565b60405180910390fd5b6040518060400160405280600381526020017f594553000000000000000000000000000000000000000000000000000000000081525060008084815260200190815260200160002060050190805190602001906105bc9291906106a5565b5042600080848152602001908152602001600020600201819055507f6e74df9698d910ff9fd86d4134c7b61784e0d3f03a2508a0a540d826c5a50f19600154600080858152602001908152602001600020600101544260008087815260200190815260200160002060030160008088815260200190815260200160002060040160008089815260200190815260200160002060050160405161066396959493929190610ed6565b60405180910390a15050565b6040518060c001604052806000815260200160008152602001600081526020016060815260200160608152602001606081525090565b8280546106b190610c4a565b90600052602060002090601f0160209004810192826106d3576000855561071a565b82601f106106ec57805160ff191683800117855561071a565b8280016001018555821561071a579182015b828111156107195782518255916020019190600101906106fe565b5b509050610727919061072b565b5090565b5b8082111561074457600081600090555060010161072c565b5090565b6000604051905090565b600080fd5b600080fd5b6000819050919050565b61076f8161075c565b811461077a57600080fd5b50565b60008135905061078c81610766565b92915050565b6000602082840312156107a8576107a7610752565b5b60006107b68482850161077d565b91505092915050565b6107c88161075c565b82525050565b600081519050919050565b600082825260208201905092915050565b60005b838110156108085780820151818401526020810190506107ed565b83811115610817576000848401525b50505050565b6000601f19601f8301169050919050565b6000610839826107ce565b61084381856107d9565b93506108538185602086016107ea565b61085c8161081d565b840191505092915050565b600060c08301600083015161087f60008601826107bf565b50602083015161089260208601826107bf565b5060408301516108a560408601826107bf565b50606083015184820360608601526108bd828261082e565b915050608083015184820360808601526108d7828261082e565b91505060a083015184820360a08601526108f1828261082e565b9150508091505092915050565b600060208201905081810360008301526109188184610867565b905092915050565b600081519050919050565b600082825260208201905092915050565b6000819050602082019050919050565b600061095883836107bf565b60208301905092915050565b6000602082019050919050565b600061097c82610920565b610986818561092b565b93506109918361093c565b8060005b838110156109c25781516109a9888261094c565b97506109b483610964565b925050600181019050610995565b5085935050505092915050565b600060208201905081810360008301526109e98184610971565b905092915050565b600080fd5b600080fd5b7f4e487b7100000000000000000000000000000000000000000000000000000000600052604160045260246000fd5b610a338261081d565b810181811067ffffffffffffffff82111715610a5257610a516109fb565b5b80604052505050565b6000610a65610748565b9050610a718282610a2a565b919050565b600067ffffffffffffffff821115610a9157610a906109fb565b5b610a9a8261081d565b9050602081019050919050565b82818337600083830152505050565b6000610ac9610ac484610a76565b610a5b565b905082815260208101848484011115610ae557610ae46109f6565b5b610af0848285610aa7565b509392505050565b600082601f830112610b0d57610b0c6109f1565b5b8135610b1d848260208601610ab6565b91505092915050565b60008060408385031215610b3d57610b3c610752565b5b600083013567ffffffffffffffff811115610b5b57610b5a610757565b5b610b6785828601610af8565b925050602083013567ffffffffffffffff811115610b8857610b87610757565b5b610b9485828601610af8565b9150509250929050565b600082825260208201905092915050565b7f717565737420646f6573206e6f74206578697374000000000000000000000000600082015250565b6000610be5601483610b9e565b9150610bf082610baf565b602082019050919050565b60006020820190508181036000830152610c1481610bd8565b9050919050565b7f4e487b7100000000000000000000000000000000000000000000000000000000600052602260045260246000fd5b60006002820490506001821680610c6257607f821691505b60208210811415610c7657610c75610c1b565b5b50919050565b7f4e487b7100000000000000000000000000000000000000000000000000000000600052601160045260246000fd5b6000610cb68261075c565b91507fffffffffffffffffffffffffffffffffffffffffffffffffffffffffffffffff821415610ce957610ce8610c7c565b5b600182019050919050565b610cfd8161075c565b82525050565b6000819050919050565b6000819050919050565b6000610d32610d2d610d2884610d03565b610d0d565b61075c565b9050919050565b610d4281610d17565b82525050565b6000610d53826107ce565b610d5d8185610b9e565b9350610d6d8185602086016107ea565b610d768161081d565b840191505092915050565b7f4e4f000000000000000000000000000000000000000000000000000000000000600082015250565b6000610db7600283610b9e565b9150610dc282610d81565b602082019050919050565b600060c082019050610de26000830188610cf4565b610def6020830187610cf4565b610dfc6040830186610d39565b8181036060830152610e0e8185610d48565b90508181036080830152610e228184610d48565b905081810360a0830152610e3581610daa565b90509695505050505050565b60008190508160005260206000209050919050565b60008154610e6381610c4a565b610e6d8186610b9e565b94506001821660008114610e885760018114610e9a57610ecd565b60ff1983168652602086019350610ecd565b610ea385610e41565b60005b83811015610ec557815481890152600182019150602081019050610ea6565b808801955050505b50505092915050565b600060c082019050610eeb6000830189610cf4565b610ef86020830188610cf4565b610f056040830187610cf4565b8181036060830152610f178186610e56565b90508181036080830152610f2b8185610e56565b905081810360a0830152610f3f8184610e56565b905097965050505050505056fea2646970667358221220d44ea4671e7fac8700672fe225fd52e1cf64141f8a786ef2c0c504c120d1317464736f6c634300080a0033",
  "immutableReferences": {},
  "source": "// SPDX-License-Identifier: MIT\npragma solidity >=0.4.22 <0.9.0;\n\ncontract TodoList {\n   struct Quest{\n        uint id;\n        uint postDate;\n        uint completedDate;\n        string details;\n        string creator;\n        string completed;\n\n    }\n    mapping(uint => Quest) quest;\n    uint prevId = 0;\n    uint[] questIds;\n    event QuestInfo(\n        uint id,\n        uint postDate,\n        uint completedDate,\n        string details,\n        string creator,\n        string completed);\n\n    function createQuest(string memory _details, string memory _creator)external {\n        prevId++;\n        quest[prevId] = Quest(prevId, block.timestamp,0, _details, _creator, 'NO');\n        questIds.push(prevId);\n        emit QuestInfo(prevId, block.timestamp,0, _details, _creator, 'NO');\n    }\n\n    modifier questExists(uint _id){\n        require(quest[_id].id >= 1, \"quest does not exist\");\n        _;\n    }\n\n    function getQuest(uint _id) public view questExists(_id) returns(Quest memory){\n        return(quest[_id]);\n\n    }\n    function getQuestIds()public view returns(uint[] memory){\n        return questIds;\n    }\n    function complete(uint _id) public questExists(_id) {\n            quest[_id].completed = 'YES';\n            quest[_id].completedDate = block.timestamp;\n            emit QuestInfo(prevId, quest[_id].postDate, block.timestamp, quest[_id].details, quest[_id].creator, quest[_id].completed);\n    }\n}\n\n",
  "sourcePath": "C:\\Users\\HP\\Desktop\\Dapps\\TodoList_Dapp\\contracts\\TodoList.sol",
  "compiler": {
    "name": "solc",
    "version": "0.8.10+commit.fc410830.Emscripten.clang"
  },
  "schemaVersion": "3.4.4",
  "updatedAt": "2022-01-31T14:42:48.714Z",
  "networkType": "ethereum",
  "devdoc": {
    "kind": "dev",
    "methods": {},
    "version": 1
  },
  "userdoc": {
    "kind": "user",
    "methods": {},
    "version": 1
  }
}